:020000040800F2
:10000000180D002079020008551C0008011C00088A
:10001000511C000885180008372B0008000000005C
:10002000000000000000000000000000491F000860
:10003000C918000800000000DD1C00085D20000851
:10004000930200089302000893020008930200083C
:10005000930200089302000893020008930200082C
:10006000930200089302000893020008930200081C
:10007000930200089302000893020008930200080C
:1000800093020008930200089302000893020008FC
:10009000930200089302000893020008CD1800089C
:1000A00093020008930200089302000893020008DC
:1000B0009302000893020008BD2100089302000883
:1000C00093020008930200089302000893020008BC
:1000D0009302000891270008192800084528000805
:1000E000930200089302000893020008930200089C
:1000F000930200089302000893020008930200088C
:100100009302000893020008ED2100089302000802
:10011000930200089302000893020008AD22000831
:10012000930200089302000893020008930200085B
:1001300000F002F800F090F80AA090E8000C824469
:100140008344AAF10107DA4501D100F085F8AFF246
:10015000090EBAE80F0013F0010F18BFFB1A43F0A5
:1001600001031847283A0000483A0000103A24BF1B
:1001700078C878C1FAD8520724BF30C830C144BF0C
:1001800004680C607047000000230024002500264E
:10019000103A28BF78C1FBD8520728BF30C148BFEA
:1001A0000B6070476E2900F05D81702900F09F821E
:1001B000662903F07C84652903F07984672903F0BC
:1001C00076846129AFF3008003681B0A28BF41F0E1
:1001D0008001692900F00A81642900F007817529EE
:1001E00000F004816F2900F02C82782900F06B82E6
:1001F000E92900F0C781E42900F0C481F52900F065
:10020000C181EF2900F02982F82900F06A82036891
:10021000DB0928BF41F08001632900F0EC857329D8
:1002200000F0F185E32900F0FC85F32900F0018658
:10023000002070471FB500F04DFE04000020002193
:1002400002F0E0FF401C60600020002102F0C4FFCB
:10025000E0601FBD10B510BD00F00FFE1146FFF7A6
:10026000E9FF02F095FD00F0E7FE03B4FFF7F2FFAF
:1002700003BC02F0D0FC0000094880470948004751
:10028000FEE7FEE7FEE7FEE7FEE7FEE7FEE7FEE746
:10029000FEE7FEE704480549054A064B70470000A3
:1002A000612000083101000818070020180D002007
:1002B0001809002018090020704700001CB50C46E2
:1002C000064B7B4469460090204600F0E4F8044663
:1002D0000020694600F0F2F820461CBDF70100003E
:1002E00010B5431C02E010F8011B71B18107FAD16F
:1002F0004FF0013202C88C1A8C4314EAC211F9D0B3
:10030000C01A0A0603D0C01E10BDC01A10BD0A04D0
:1003100001D0801E10BD0902FCD0401E10BD7047E8
:1003200070477047704770B5044685690068C1061C
:1003300001D5302600E02026C00707D070BDD4E9E3
:10034000012130469047206A401C20626D1EF6D580
:1003500070BD70B5044685690078C00707D170BDCF
:10036000D4E9012120209047206A401C20626D1EA4
:10037000F6D570BD09684A0501D540B27047C90578
:10038000FCD500B2704709684A0501D5C0B2704774
:10039000C905FCD580B2704770B50C460546012AE8
:1003A00005D02878800600D5EA69002302E0012301
:1003B00005E05B1C934202D2E05C0028F9D1A869F9
:1003C000E618C01AA861286A184428622846FFF770
:1003D000AAFF04E0D5E9012114F8010B9047B442CB
:1003E000F8D32846FFF7B5FF70BD00002DE9F041B6
:1003F0000646002410687529314616A510D0FFF76F
:10040000B9FF002802DA404213A507E031688A07E5
:1004100001D512A502E0490704D511A5012401E088
:10042000FFF7B1FF00210A2206F1240709E0B0FB23
:10043000F2FCB0FBF2F302FB1C003030785418469B
:10044000491C0028F3D123462A463046BDE8F04136
:1004500000F061BA000000002D0000002B00000039
:100460002000000011680268006A530501D5087079
:100470000AE0D30501D5088006E0130603D5C217AC
:10048000C1E9000200E008600120704701694A1CD0
:1004900002610878704700B58FB0CDE901310021C5
:1004A000059105497944CDE903101146684600F0ED
:1004B00029F90FB000BD0000E5FFFFFF0A6802F850
:1004C000010B0A60704700002DE9FF5F15468A4660
:1004D0000446DFF8AC80F8440027D8E900103E4617
:1004E000CDE9001010E03AF816106A4602A800F0B4
:1004F000A4FC411C07D02178890603D5E26939188C
:1005000091420DD80744761C2078800602D5E06918
:10051000B84205DDAE42E6DB3AF816000028E2D12B
:10052000A069C01BA0612046FFF7FDFED8E90010BE
:10053000CDE90010002017E03AF818106A4602A82A
:1005400000F07BFCB0F1FF3F81460BD000250DF1A0
:10055000080B05E0D4E901211BF8050090476D1C4C
:100560004D45F7D308F10100B0428046E4DB206A34
:10057000384420622046FFF7ECFEBDE8FF9F0000F4
:10058000DA3500002DE9F0418046D21D22F0070245
:100590000025D2E90002F52915A614D0011E72F13A
:1005A000000106DA0023D0EB030063EB020211A680
:1005B00008E0D8F800108B0701D50FA602E0490724
:1005C00001D50EA601251146002408F1240704E0F8
:1005D00000F05CF930323A55641C50EA0102F7D160
:1005E0002B46324621464046BDE8F04100F093B923
:1005F000000000002D0000002B0000002000000083
:1006000030B4002100F1240408E002F00705D2080C
:10061000303542EA4372DB086554491C52EA03054F
:10062000F3D10468002310A2250707D5A40600D43F
:1006300021B1C46901230DA2641EC46130BC00F065
:100640006AB910B5044621461068FFF79CFE0246C1
:100650002046BDE810400023D2E7D21D22F007015A
:10066000D1E90023CCE700000000000030000000CA
:10067000F0B40D460188090502D5214C7C4402E006
:100680001F4C7C440E34002100F1240608E002F0E7
:100690000F071209E75D42EA03721B097754491CF0
:1006A00052EA0307F3D102780023120704D5702D14
:1006B00006D009B1022311342246F0BC00F02BB958
:1006C00001231034F8E770B504460D462146106842
:1006D000FFF759FE024629462046BDE87040002338
:1006E000C6E7D21D22F00703D3E90023C0E7036861
:1006F000126843F0200303600823C3610023B7E7B7
:100700003C3400002DE9F05F894604464FF0000AB2
:10071000DFF874B1FB44C0F820A02046E1688847A8
:10072000002874D0252806D0D4E901219047206AFA
:10073000401C2062F1E700265F462046E1688847BA
:100740002028054607DB312D05D2781910F8200C3A
:1007500008B10643F1E7B00701D526F00406C4F856
:100760001CA00027C4F818A02A2D09D0284602F0A2
:100770004BFA38B304EB8708303DC8F8185019E03D
:1007800059F8041B204604EB87029161E168884711
:10079000012F054618D1E069002820DA26F020064E
:1007A0001DE0D8F8180000EB800005EB4000303861
:1007B000C8F818002046E1688847054602F024FA88
:1007C0000028EED1012F0AD02E2D08D12046E16855
:1007D00088477F1C0546022F46F02006C4DBA0692F
:1007E000002803DA404246F00106A061F00701D07C
:1007F00026F010066C2D0BD0682D09D04C2D39D069
:100800006A2D35D0742D35D07A2D33D016E038E0EE
:10081000E1682F4620468847B842054609D16C2F2B
:1008200026D04FF48060E16806432046884705469D
:1008300004E06C2F1AD04FF4807006430DB3A5F17D
:100840004100192802D8203546F400664A46294658
:10085000204626604E46FFF7A5FC80B101280BD04C
:10086000F61D26F0070000F1080956E74020E4E7EE
:100870008020D8E70020D6E706F104094DE7284696
:1008800052E7206ABDE8F09FCC33000030B5B0F1EC
:100890000A024FEA900E71F100034EEA817EB0EB3E
:1008A0000E0061EB91014FEA101E4EEA017E10EB43
:1008B0000E0041EB11114FEA102E4EEA016E10EBC3
:1008C0000E0041EB11214FEA104E4EEA014E10EBA3
:1008D0000E0041EB1141401841F100014FEAD000F8
:1008E00040EA41704FEAD10110EB80054FEA8104E4
:1008F00044EA907444EB01046D1944EB0404521B68
:10090000A3414FF0000348BF0A3200D530BD401C60
:1009100041F1000130BD2DE9F0470D469946924660
:10092000044600F124080168880604D5E06921F036
:100930001001216000E00120A84201DD471B00E01A
:100940000027A1697A1902EB0900081AA061207832
:10095000C00602D42046FFF7E6FC002608E0D4E9F2
:1009600001211AF806009047206A401C761C20627C
:100970004E45F4DB2078C0060AD52046FFF7D3FCAD
:1009800006E0D4E9012130209047206A401C206213
:10099000381EA7F10107F4DC07E0D4E9012118F8BB
:1009A00005009047206A401C2062281EA5F1010521
:1009B000F3DC2046FFF7CDFC2078000602D50220AC
:1009C000BDE8F0870120FBE770472DE9FF4F0C469B
:1009D0001E464FF0FF378BB0D2E90001DDF8608092
:1009E0000A908A46C1F30A5505B93D4600210846DA
:1009F0004FF00000BAF1000F00F4400005DA00EB00
:100A000080004FF4400101EA50004FEA9059B9F1DB
:100A1000010F00DDB9460A9850EA4A000ED044F6AC
:100A20001050A5F2FF3545432F14B8F1000F1ED02A
:100A30007542291E1EDDC9F100021CE0B8F1010F4C
:100A40004FF0000001D0302103E0F24305E02154D3
:100A5000401CB042FBDB30460022002121540B99A0
:100A6000C1F80880C1E900200FB0BDE8F08FBD1BC0
:100A70006D1CDEE74A4600DA694206A800F06EFA0D
:100A800006AB93E8070003AB83E8070050460A99DA
:100A900000F020FB8DE80700A0F500501F38009003
:100AA0000398002D09DD42F21F014A46084403A9BC
:100AB0000390684600F07FFD08E0A0F500504A462C
:100AC0001F3803A90390684600F089FD8DE80700F0
:100AD0000004000C03D04FF0FF30410800E0104646
:100AE000B8F1000F03D00022009215461EE0751EDB
:100AF00005D4FFF7CBFE303262556D1EF9D5B346F3
:100B00000122084302D000227F1C04E02078302814
:100B100001D100227F1E002A099786D01DE0112DE9
:100B200007DAFFF7B3FE303262556D1C50EA01025E
:100B3000F5D1084302D00098C8B10EE00021681E2C
:100B400005E0235C625C63542254401E491C8142D0
:100B5000F7DBAB46A81B401E0990002004F80B00F1
:100B60000B98099AC0F80880C0E9002B7CE7112691
:100B70004FF0000859E72DE9F04F88460446D21D92
:100B800022F0070191B0D1E90001CDE90A0102F09C
:100B900027F802460B98C00F01D02D2007E02068EF
:100BA000810701D52B2002E0202101EAC000032AA1
:100BB000099001D0072A05DB03464146204600F094
:100BC0008DF90BE12078800601D5E06900E0062070
:100BD000B8F1650F814606D0B8F1660F18D0B8F1AC
:100BE000670F70D131E00020B9F1110F009001DBE7
:100BF000112301E009F101030AAA01A90CA8FFF7DA
:100C0000E4FEDDE90C70002609F10105834647E0AA
:100C100001204B4600904FF000470AAA01A90CA8FA
:100C2000FFF7D3FEDDE90DB00C995D46002610B943
:100C300009F101000D18B9EB050003D4C0F1FF362E
:100C400009F10105A5EB09002BE0B9F1010F01DA6B
:100C50004FF001090020B9F1110F0090484601DD65
:100C6000112300E003460AAA01A90CA8FFF7ADFE74
:100C7000DDE90C704D4600268346207800070AD433
:100C8000AB4500DA5D4601A8012D04DD411911F8DC
:100C9000011C302907D04F4502DA17F1040F04DA9E
:100CA000012082460FE06D1EEEE7002F02DCED1BF7
:100CB0003E4403E0781CA84200DD7D1CB81B00F117
:100CC000010A4FF000472078000703D4AA4501DB52
:100CD0004FF0FF3A0021B7F1004F0DF143088DF8B6
:100CE000431024D002202B23002F01DA7F422D2332
:100CF0000A21021EA0F1010000DC5FB197FBF1FCAC
:100D000097FBF1F201FB1C7C17460CF1300C08F844
:100D100001CDEEE7A8F1010003702188090501D596
:100D2000452100E06521A0F1010800F8011C0998A7
:100D30000FA9A1EB0807FF1D00B10120411901EB2C
:100D4000EA70A1693844081A401EA0612078C006E4
:100D500002D42046FFF7E7FA099828B1D4E9012127
:100D60009047206A401C20622078C00622D5204689
:100D7000FFF7D9FA1EE0002E04DBB34502DD01A81F
:100D8000805D00E03020D4E901219047206A401CBA
:100D90002062761CAAF101005FEA000A0AD100F085
:100DA00099F8C0680168405CD4E901219047206A45
:100DB000401C2062281EA5F10105DCDC07E0D4E917
:100DC000012118F8010B9047206A401C2062381E50
:100DD000A7F10107F3DC2046FFF7BBFA032011B0AF
:100DE00043E610B5436913B1AFF3008001E0FFF7AC
:100DF000D3FA012010BD127800F124010A700022FC
:100E00004A700122EDE711684FF0FF32E9E710B5B3
:100E1000436913B1AFF3008001E0FFF755FB0120F8
:100E200010BD128800F1240182840022C2840122B4
:100E3000EDE711684FF0FF32E9E770B516460C4652
:100E4000054600F03FF8036893F80101012806D039
:100E5000FF2C0FD8185D68B101202C7070BDD3F83D
:100E600007013246214603F2071303442846BDE832
:100E7000704018474FF0FF3070BD754600F0E6F83F
:100E8000AE4605006946534620F00700854618B077
:100E900020B5FFF7FFF9BDE820404FF000064FF006
:100EA00000074FF000084FF0000B21F00701AC469F
:100EB000ACE8C009ACE8C009ACE8C009ACE8C009BE
:100EC0008D46704710B500F005F8001D10BD00BF3D
:100ED0003523000000487047D40600202DE9F0417A
:100EE0001F46044603260168072A01F4006004DB5C
:100EF00008B116A505E016A503E008B115A500E0A8
:100F000015A521F010002060A069C01EA0610FB1DE
:100F1000401EA0612046FFF706FA4FB1D4E9012137
:100F200038469047206A401C2062C01C206206E0C0
:100F3000206AFAE7D4E9012115F8010B9047761EE3
:100F4000F8D22046FFF705FABDE8F0814E414E0089
:100F50006E616E00494E4600696E66002DE9F047ED
:100F6000814616468AB0334878440DC88DE80D0096
:100F700030487844801C03AC0DC884E80D0041F66D
:100F80009B300844372190FBF1F290FBF1F5A5F17D
:100F9000800501FB12041B3C02D56442012000E0E5
:100FA0000020DFF890A080460027FA44AAF1BE0A8C
:100FB0000DE0E00709D03246684607EB47010AEB2F
:100FC000810100F00CFB8DE8070064107F1C002CF1
:100FD000EFD1184F7F44AC3F18E0E80714D007EB7F
:100FE00004100DF1180A90E80E008AE80E00C0689F
:100FF000F04201D198190890324606A903A800F0E2
:10100000EEFA03AB83E807006D10641C002DE4D1F9
:1010100032466946B8F1000F03A802D000F0CBFABF
:1010200001E000F0DCFAC9E90001C9F808200AB0C3
:10103000BDE8F087082C000010B50446AFF300802F
:101040002046BDE81040FFF710B900000048704787
:10105000B40600204FF0013C50F8042B51F8043B3B
:101060009A4221D1A2EB0C03934313EACC1317D17C
:1010700050F8042B51F8043B9A4215D1A2EB0C0313
:10108000934313EACC130BD150F8042B51F8043BD3
:101090009A4209D1A2EB0C03934313EACC13DBD0A1
:1010A0004FF00000704700BFD01A01BAB1FA81F1C9
:1010B00001F0180122FA01F0CB40C1F12001DBB2AE
:1010C000C0B2C01A2CFA01F3D11A914311EAC3112C
:1010D000E6D170475FEA400C08BF91F0000F4FEA7D
:1010E0008C234FEAC12243EA51514FEA1C5018BFEA
:1010F00000F5F0404FEA300018BF41F000415FEAD0
:101100006C5C00F02980BCF1FF3F08BF40F08040DC
:101110007047130C06BF12044FF0100C4FF0000C78
:10112000130E04BF12020CF1080C130F04BF1201BE
:101130000CF1040C930F04BF92000CF1020CD30FBE
:1011400004BF52000CF1010C11464FF00002A0F157
:101150001F00A0EB0C00704711F0004F08BF704754
:1011600031F000413FF4D5AF0B0C06BF09044FF03E
:10117000100C4FF0000C0B0E04BF09020CF1080C10
:101180000B0F04BF09010CF1040C8B0F04BF890085
:101190000CF1020CCB0F04BF49000CF1010CCCF197
:1011A0002003A0EB0C0022FA03F302FA0CF241EA4E
:1011B000030100F10100704720F07F4C80EA03003A
:1011C00023F07F47ACEB070303F57C5300F00040AE
:1011D00003F1FF032DE980494FEA154B09B44FEAAB
:1011E000144325EA0B4E24EA03480FF2042606EBCB
:1011F000132749083E785FEA320203FB0667C7F50A
:10120000000707FB06F64FEA54374FEAD64606F1C9
:10121000020607FB066CCCF1005C4FEA1C472CEA87
:10122000074C07FB06F40CFB06F504EB15464FEAEA
:10123000961634BF00204FF000404FEAD13706FB2E
:1012400007FC4FEA1C4C0CFB0BF7D21B03FB0CF703
:1012500061EB07010CFB0EF7B0EB074072EB174296
:101260000CFB08F734BFA2EB0742B2EB074261EB7D
:1012700017414FEA0C444FEA910706FB07FC4FEA7F
:101280001C4C0CFB0BF7B0EBC74072EB573203FB67
:101290000CF734BFA2EBC742B2EBC74261EB573148
:1012A0000CFB0EF7B0EBC70072EB57720CFB08F7A4
:1012B00034BFA2EBC702B2EBC70261EB5771039FC9
:1012C0004FEA816141EA921104EBCC044FEAD13735
:1012D0004FEA826206FB07FC42EA90124FEA806006
:1012E0004FEA1C4C0CFB0BF7D21B03FB0CF761EB1A
:1012F00007010CFB0EF7B0EB074072EB17420CFB3B
:1013000008F734BFA2EB0742B2EB074261EB17418B
:101310004FEA8C554FEA910704EB9C2406FB07FC2F
:101320004FEA1C4C0CFB0BF7B0EBC74072EB57328B
:1013300003FB0CF734BFA2EBC742B2EBC74261EB31
:1013400057310CFB0EF7B0EBC70072EB57720CFB7A
:1013500008F734BFA2EBC702B2EBC70261EB5771CB
:1013600015EB4C254FEA816141EA92114FEA826206
:101370004FEAD13742EA901206FB07FC44F1000421
:101380004FEA80604FEA1C4C0CFB0BF7D21B03FBAF
:101390000CF761EB07010CFB0EF7B0EB074072EBAB
:1013A00017420CFB08F734BFA2EB0742B2EB07422F
:1013B00061EB174115EB1C154FEA813141EA92416F
:1013C0004FEA823242EA90424FEA80304FEA0C768E
:1013D00044F1000448EA03434EEA0B484FF0000E84
:1013E000B2EB080C71EB030724BF624639464EEBA3
:1013F0000E0E4FF0000B0018524149414BEB0B0B06
:10140000B2EB080C71EB03077BF1000B24BF6246C3
:1014100039464EEB0E0E4FF0000B00185241494179
:101420004BEB0B0BB2EB080C71EB03077BF1000BE2
:1014300024BF624639464EEB0E0E51EA020718BF32
:1014400046F0010616EB0E7655F1000254F100014C
:1014500003D5BDE88901BDE80088BDE88901BDE884
:101460000048B619524141EB0101A3F10103704755
:1014700080807F7E7D7C7B7A7978777676757473D1
:10148000727171706F6E6E6D6C6C6B6A6A69686890
:10149000676666656464636362616160605F5F5E26
:1014A0005E5D5D5C5C5B5B5A5A595958585757569C
:1014B0005655555554545353525252515150505001
:1014C0004F4F4F4E4E4D4D4D4C4C4C4B4B4B4A4A53
:1014D0004A49494948484847474747464646454597
:1014E00045444444444343434342424242414141D0
:1014F000002B26D4770021D01CB54FEA370703B460
:101500004FF010004FF010014FF000000FBCBDE88D
:1015100010400BF1010BBBF1010F08BF5FEA170789
:1015200022BF12F1010211F101014FF0004143F11C
:10153000000300F0004043EA00007047F9D3570869
:10154000DAE746EA064613F1400F4FEA16461FDD7A
:1015500013F1200FDFBF16430A46002120335B4200
:10156000C8D0C3F1200746EA064602FA07F74FEA59
:10157000164646EA0706C3F1200722FA03F201FAEB
:1015800007F721FA03F14FF0000342EA0702B1E73F
:1015900046EA020646EA06464FEA164646EA0106CB
:1015A000BCBF46EA0646360C4FF000034FF000027F
:1015B0004FF000019EE72DE9C048934630B491E812
:1015C000380007C831EA400C48BF34EA430C03D561
:1015D000FFF7F2FDFFF78CFFF0BCBDE800882DE9B6
:1015E000C048934630B491E8380007C810F0804FE7
:1015F00008BF13F0804F03D100F005F8FFF778FF24
:10160000F0BCBDE8008820F07F4780EA030023F0AB
:101610007F4C07EB0C03A3F57C5300F00040A3F1D3
:10162000FE0392F0000F00F0B38095F0000F00F081
:1016300077802DE901494FEA11404FEA144621EA2B
:10164000004800FB06FC24EA064708FB06F607FBF9
:1016500008F800FB07F718EB06484CEB164C4FEA6E
:10166000124B18EB07484FEA15464CEB174022EA9D
:101670000B4E0BFB06FC25EA06470EFB06F607FBA6
:101680000EFE0BFB07F71EEB064E4CEB164C4FF015
:1016900000061EEB074E4CEB174B18EB0B0840F106
:1016A000000018EB0E0B58EB000840F100008F1AF9
:1016B0004FF000013CBFC943661B14BFB5EB040CDF
:1016C00000213CBFC943F61B4FEA17444EEA8E0E79
:1016D00027EA04454FEA1C4704FB07622CEA074C43
:1016E00005FB07F70CFB05F604FB0CFC16EB0746A5
:1016F00042EB174216EB0C4642EB1C421BEB060674
:1017000058EB0202414146EA9E0601D5BDE8018937
:10171000B619524141EB0101A3F10103BDE8018972
:101720004FEA14454FEA114724EA054621EA074CDF
:1017300005FB07F406FB07F70CFB06F105FB0CFCA9
:1017400011EB074144EB17444FEA124711EB0C41F0
:1017500044EB1C4422EA074C05FB07F206FB07F7A3
:101760000CFB06F605FB0CFC16EB074642EB17429A
:1017700016EB0C4642EB1C456A1854F1000148BFB9
:101780007047B619524141EB0101A3F101037047C3
:1017900095F0000F37D04FEA11424FEA144721EA83
:1017A000024624EA074C02FB07F106FB07F70CFB95
:1017B00006F402FB0CFC14EB074441EB17414FEA23
:1017C000154714EB0C4441EB1C4125EA074C02FB86
:1017D00007F506FB07F70CFB06F602FB0CFC16EB05
:1017E000074645EB174516EB0C4645EB1C42121914
:1017F00051F1000148BF7047B619524141EB010158
:10180000A3F1010370474FEA14454FEA114724EA58
:10181000054621EA074C05FB07F106FB07F70CFB21
:1018200006F24FF0000605FB0CFC12EB074241EB01
:10183000174112EB0C4251EB1C4148BF7047921804
:1018400041EB0101A3F101037047000008B501213C
:10185000082000F0B3FA4FF48070ADF800001020BB
:101860008DF8030003208DF802006946044800F05B
:10187000F5F84FF48071024800F084F908BD0000CB
:10188000000C014000BFFEE730B50B464478857878
:1018900044EA0524C57844EA0544057944EA05612B
:1018A000074D29704479857944EA0524C57944EACD
:1018B0000544057A44EA0562024D2A7030BD0000F5
:1018C0006200002063000020704700002DE9F04115
:1018D0000A2001F037FA402000F042F878B30021E6
:1018E000184800F0CAFE0121164800F036FD00BF7E
:1018F0004021154800F03DF90028F9D10021114898
:1019000000F02BFD0F4800F037FD4FF4AA7100FBEB
:1019100001F4204601F016FE054600220B4B01F0B3
:10192000B9FC074601F084FC094908600021084819
:10193000006802F015F84FF0400000F00BF8BDE829
:10194000F0810000000800400018014000006940DC
:10195000580000200149086070470000140401404D
:10196000014600200022074B1B6803EA0102054BD9
:1019700014331B680B4013B10AB1012000E00020B2
:101980007047000000040140002123498279002AA9
:101990003AD00A46126803689A430B461A600A1D39
:1019A000126803689A430B1D1A60027911440A6891
:1019B00003681A430A60184A0832126803689A4397
:1019C000154B08331A601A1D126803689A43124BAC
:1019D0000C331A604279102A0ED11A1F126803685C
:1019E0001A430D4B08331A601A1D126803681A4314
:1019F000094B0C331A600DE00749427911440A681B
:101A000003681A430A6005E0027911440A68036812
:101A10009A430A60704700000004014030B500227C
:101A20008B071C0F0F2303FA04F20B4B8C1053F897
:101A300024309343084C8D1044F8253023468C10F5
:101A400053F824308C07240F00FA04F42343024C8B
:101A50008D1044F8253030BD080001402DE9F041DB
:101A6000024600250026002000230024002791F8CC
:101A700003C00CF00F0591F803C00CF0100CBCF182
:101A8000000F03D091F802C04CEA050591F800C0A0
:101A9000BCF1000F31D0146800202BE04FF0010C96
:101AA0000CFA00F3B1F800C00CEA03069E4220D104
:101AB00083004FF00F0C0CFA03F7BC4305FA03FC4C
:101AC0004CEA040491F803C0BCF1280F06D14FF092
:101AD000010C0CFA00FCC2F814C00AE091F803C033
:101AE000BCF1480F05D14FF0010C0CFA00FCC2F814
:101AF00010C0401C0828D1D31460B1F800C0BCF15C
:101B0000FF0F34DD546800202EE000F1080C4FF088
:101B1000010808FA0CF3B1F800C00CEA03069E4273
:101B200021D183004FF00F0C0CFA03F7BC4305FAE8
:101B300003FC4CEA040491F803C0BCF1280F05D162
:101B400000F1080C08FA0CF8C2F8148091F803C0F0
:101B5000BCF1480F07D100F1080C4FF0010808FA5A
:101B60000CF8C2F81080401C0828CED35460BDE8A1
:101B7000F0810246002093680B400BB1012000E089
:101B800000207047416170470161704770B504469D
:101B90000D4600F095FA2B4600222146104600F033
:101BA000B1FA70BD70B505460C4600F089FA002305
:101BB00022461946284600F0A5FA70BD70B50446C5
:101BC0000D4600F07DFA00232A462146184600F013
:101BD00099FA70BD70B505460C4600F071FA2346BF
:101BE00000221146284600F08DFA70BD10B500F0B5
:101BF00067FA00231A461946184600F083FA10BD0A
:101C000000BFFEE708B50121482000F0D7F82020EA
:101C1000ADF8000010208DF8030003208DF80200BD
:101C200069460948FFF71AFF20210748FFF7ACFF74
:101C30002020ADF8000069460448FFF70FFF20217F
:101C40000248FFF7A1FF08BD000C01400018014049
:101C500000BFFEE77047000070B5002100230F228F
:101C6000C47804B3154C246804F4E064C4F5E0645B
:101C7000210AC1F10403CA40447804FA03F18478CC
:101C80001440214309010E4C0678A155047804F054
:101C90001F050124AC4005786D11AD0005F1E0256C
:101CA000C5F8004109E0047804F01F050124AC40A8
:101CB000044D0678761145F8264070BD0CED00E025
:101CC00000E400E080E100E002490143024A1160C3
:101CD000704700000000FA050CED00E070470000BE
:101CE0002DE9F84F04460D461D4E1E4FDFF8788053
:101CF000601B01F01DFD1D490860084601681C4875
:101D0000006801F08BFC1A4908601A4801681748FE
:101D1000006801F057FE8346414601F055FD8146BB
:101D200013480168384601F04FFD83460F480168AB
:101D3000304601F049FD5946009001F06FFC8246A3
:101D4000494601F06BFC0C490860084800680949E5
:101D500008600948006801F0CFFCBDE8F88F00007A
:101D6000000020430AD7233C0000B44210000020AA
:101D7000180000201C0000201400002029B1064A91
:101D8000D2690243044BDA6104E0034AD269824318
:101D9000014BDA61704700000010024029B1064A89
:101DA00012690243044B1A6104E0034A1269824338
:101DB000014B1A61704700000010024029B1064A29
:101DC00092690243044B9A6104E0034A9269824398
:101DD000014B9A61704700000010024029B1064A89
:101DE000D2680243044BDA6004E0034AD2688243BB
:101DF000014BDA60704700000010024030B500214E
:101E00000022002400232D4D6D6805F00C0121B146
:101E1000042905D0082923D105E0294D056022E0D9
:101E2000274D05601FE0254D6D6805F47012234DA8
:101E30006D6805F48034022505EB92421CB9214DF2
:101E4000554305600BE01D4D6D6805F400351DB16F
:101E50001C4D5543056002E0194D5543056002E0F5
:101E6000174D056000BF00BF144D6D6805F0F0010F
:101E70000909154D6B5C0568DD4045600F4D6D68C7
:101E800005F4E061090A104D6B5C4568DD40856032
:101E90000A4D6D6805F46051C90A0B4D6B5C4568CD
:101EA000DD40C560054D6D6805F44041890B074D67
:101EB0006B5CC568B5FBF3F5056130BD00100240F1
:101EC00000127A0000093D003E0000204E00002074
:101ED00010B504461948007828B9AA2C03D101206E
:101EE0001649087028E015480078012808D1AE2C62
:101EF00006D10220114908700020114908701BE02A
:101F00000E480078022814D10D480078401CC0B259
:101F10000B4908700B490C540948007808280BDB62
:101F2000002006490870064801780648FFF7ACFC17
:101F300002E000200149087010BD0000650000208B
:101F400064000020F8010020704710B500F002F88E
:101F500010BD00000CB500200190009033480068CF
:101F600040F480303149086000BF3048006800F418
:101F7000003000900198401C0190009818B9019819
:101F8000B0F5A06FF1D12948006800F4003010B11D
:101F90000120009001E0002000900098012843D12A
:101FA0002348006840F01000214908600846006896
:101FB00020F0030008600846006840F00200086056
:101FC0001A48406819494860084640684860084611
:101FD000406840F4806048600846406820F47C1007
:101FE00048600846406840F4E810486008460068C9
:101FF00040F08070086000BF0C48006800F000707E
:102000000028F9D00948406820F0030007494860DB
:102010000846406840F00200486000BF034840683E
:1020200000F00C000828F9D10CBD0000001002409F
:1020300000200240042808D14FF0E021096941F056
:1020400004014FF0E022116107E04FF0E02109693F
:1020500021F004014FF0E022116170477047000049
:1020600010B51348006840F00100114908600846A7
:102070004068104908400E494860084600680E490B
:1020800008400B4908600846006820F4802008607A
:102090000846406820F4FE0048604FF41F00886046
:1020A000FFF753FF4FF000600449086010BD0000C7
:1020B000001002400000FFF8FFFFF6FE08ED00E010
:1020C00008B501210220FFF759FE01210C20FFF77E
:1020D00075FEC020ADF8000018208DF80300032025
:1020E0008DF8020069460548FFF7B8FC0320ADF8FB
:1020F000000069460248FFF7B1FC08BD0008014036
:10210000000C0140F0B587B007460C4615461E4648
:1021100040F2E730ADF814000020ADF81000ADF843
:102120001600ADF8120004A9234800F0A9FA6020B7
:10213000ADF800000120ADF80200ADF806700020F7
:10214000ADF8080069461C4800F034F908211A4827
:1021500000F085F90120ADF80200ADF806406946AF
:10216000154800F085F90821134800F0D3F9012043
:10217000ADF80200ADF8065069460F4800F0D8F9F6
:1021800008210D4800F024FA0120ADF80200ADF856
:1021900006606946084800F025FA0821064800F064
:1021A0005FFA0121044800F0C9F80121024800F05B
:1021B000D4F807B0F0BD00000004004010B50121C4
:1021C000084800F0DCF858B10121064800F0C2F8D8
:1021D0000548006808B9012000E0002002490860B5
:1021E00010BD0000000800409401234210B52C48A7
:1021F000007800F0800000284CD10121294800F02F
:10220000BEF8D0B12648007800F04000A8B12448BC
:10221000007800F03F003F280AD12148007840F0C4
:1022200080001F4908704FF6FF701F49088004E0C6
:102230001B480078401C1A4908700221194800F018
:102240009EF838B31648007800F0400078B1144882
:10225000007840F0800012490870124800F089F8B8
:102260001149088000210F4800F0F0F812E000202A
:102270000B4908700C49088000210A4800F0FDF95C
:102280000748007840F040000549087002210548E1
:1022900000F0DCF80321034800F05CF810BD0000FA
:1022A00052000020000C00405400002010B5012115
:1022B000094800F064F868B10848008840F400401C
:1022C000064908800121044800F044F80021024832
:1022D00000F043F810BD000000140040660000202C
:1022E0007FB505460C4601212020FFF747FDADF8DC
:1022F0000450ADF800400020ADF80600ADF8020033
:1023000069460D4800F0BCF9012211460A4800F068
:1023100047F80121084800F020F837208DF80C001C
:1023200000208DF80D0001208DF80E008DF80F00B3
:1023300003A8FFF791FC7FBD0014004021B1028883
:1023400042F08002028004E002884FF67F731A4058
:1023500002807047CA430282704721B1028842F06E
:102360000102028004E002884FF6FE731A400280E8
:1023700070470146888E70470146888C704730B59B
:102380000246002000230024158A05EA01039589EE
:1023900005EA010413B10CB1012000E0002030BDBA
:1023A0001AB183890B43838102E083898B43838144
:1023B0007047000070B5002400220023058C4FF602
:1023C000FE7635400584028C8388048B4FF68F752A
:1023D0002C40B51E2C400D882C43751E2A400D89BB
:1023E0002A434D882A43144DA8420BD0134DA842CE
:1023F00008D0134DA84205D0124DA84202D0124D6C
:10240000A84213D14FF6F7752A404D892A434FF65B
:10241000FB752A408D882A434FF6FF652B404FF607
:10242000FF552B408D892B43CD892B43838004831B
:10243000CD888586028470BD002C014000340140A7
:102440000040014000440140004801400A4600218C
:10245000018C4FF6FD7319401143018470470A4601
:102460000021018B4FF6F773194011430183704728
:1024700070B5002400220023058C4FF6EF7635401E
:102480000584028C8388048B48F6FF752C404FF638
:10249000FF452C400D884FF6FF7606EA05252C43B4
:1024A0004FF6DF752A400D8906EA05152A434D8847
:1024B00006EA05152A43154DA84202D0144DA8423C
:1024C0001DD14FF67F752A404D894FF6FF7606EAFB
:1024D00005152A434FF6BF752A408D8806EA051573
:1024E0002A434FF6FF352B404FF2FF752B408D8965
:1024F00006EA85052B43CD8906EA85052B438380B3
:102500000483CD880587028470BD0000002C014043
:10251000003401400A460021018B4FF2FF7319403D
:102520004FF6FF7303EA022319430183704700004B
:1025300070B5002400220023058C4FF6FF6635405D
:102540000584028C8388848B4FF68F752C404FF660
:10255000FC752C400D882C434FF6FF552A400D8901
:102560004FF6FF7606EA05252A434D8806EA05253B
:102570002A43154DA84202D0144DA8421DD14FF256
:10258000FF752A404D894FF6FF7606EA05252A4356
:102590004FF6FF352A408D8806EA05252A434EF678
:1025A000FF752B404DF6FF752B408D8906EA05150A
:1025B0002B43CD8906EA05152B4383808483CD8880
:1025C0008587028470BD0000002C0140003401406A
:1025D0000A460021818B4FF6F7731940114381831E
:1025E0007047000070B5002200230024058C4EF6D1
:1025F000FF7635400584038C8488828B48F6FF750E
:102600002A404FF6FF452A400D884FF6FF7606EA2E
:1026100005252A434DF6FF752B400D8906EA053541
:102620002B434D8806EA05352B430B4DA84202D0BB
:102630000A4DA84208D14BF6FF752C408D894FF604
:10264000FF7606EA85152C4384808283CD88A0F826
:102650004050038470BD0000002C01400034014054
:102660000A460021818B4FF2FF7319404FF6FF732A
:1026700003EA022319438183704781847047000075
:10268000002202881D4B98420ED01D4B98420BD061
:10269000B0F1804F08D01B4B984205D01A4B98429E
:1026A00002D01A4B984204D14FF68F731A404B88D0
:1026B0001A43174B984207D0164B984204D04FF656
:1026C000FF431A40CB881A4302808B8883850B888E
:1026D00003850A4B98420BD0094B984208D00E4B09
:1026E000984205D00D4B984202D00D4B984201D133
:1026F0000B7A03860123838270470000002C01407F
:10270000003401400004004000080040000C00407C
:10271000001000400014004000400140004401400F
:10272000004801407FB504460D4601210420FFF713
:1027300025FB0020ADF8060041F28830ADF8080016
:1027400041F61F40ADF804000020ADF80A0001A9D1
:102750000E48FFF795FF012211460C48FFF720FEB7
:10276000012240210948FFF71BFE1E208DF80000C2
:1027700001208DF8030000208DF8010003208DF862
:1027800002006846FFF768FA7FBD000000080040BD
:1027900010B540F225511D4800F009F910B31B484F
:1027A00000F0C0F9C4B21A48008800F40040C8B96B
:1027B0001748008800F4804060B10A2C03D0002044
:1027C0001349088020E01248008840F40040104976
:1027D000088019E00D2C06D10D48008840F4804097
:1027E0000B49088010E00A480088C0F30D00094931
:1027F0000C5407480088401C05490880084600889A
:10280000C72801DD0020088010BD0000003801400D
:102810003C0000206800002010B540F22551084817
:1028200000F0C5F858B140F22551054800F048F8CD
:10283000034800F077F9C4B22046FFF749FB10BD0A
:10284000004400407FB5002540F22551184800F0B3
:10285000AEF818B3164800F065F9C4B21548008800
:1028600000F40040D0B913480088B0F5167F16DA9E
:10287000681CC5B200211048FFF7FFFE0D48008814
:1028800018B901210C48FFF768FD0A490888411C66
:10289000084A118009490C540DF8054006E0054826
:1028A000008840F400400349088000257FBD0000F7
:1028B0000048004066000020001400400202002092
:1028C00010B50022002340F66A14A14200D100BFD7
:1028D0000A1201249440A3B2DC43048010BD21B14C
:1028E000828942F40052828104E082894DF6FF73AE
:1028F0001A4082817047000010B504462048844287
:1029000009D101218803FFF769FA00214FF48040C3
:10291000FFF764FA32E01B48844209D101214804E0
:10292000FFF73CFA00214FF40030FFF737FA25E0BB
:102930001548844209D101218804FFF72FFA0021AC
:102940004FF48020FFF72AFA18E01048844209D19A
:102950000121C804FFF722FA00214FF40020FFF7FD
:102960001DFA0BE00A48844208D101210805FFF74F
:1029700015FA00214FF48010FFF710FA10BD000087
:10298000003801400044004000480040004C004036
:102990000050004002460020B1F5007F00D100BF8A
:1029A00013880B400BB1012000E00020704770B588
:1029B0000246002400230025002040F66A16B1429A
:1029C00000D100BFC1F3421501F01F03012606FA32
:1029D00003F3012D02D19689334006E0022D02D186
:1029E000168A334001E0968A33400C12012606FA1B
:1029F00004F41688344013B10CB1012000E000202B
:102A000070BDF0B50346002400260025002040F6E6
:102A10006A17B94200D100BF1846C1F3421401F051
:102A20001F06012707FA06F5012C01D10C3004E03E
:102A3000022C01D1103000E014301AB107682F4386
:102A4000076002E00768AF430760F0BD2DE9F0477B
:102A500086B005460E460024A24600BFA1460027C8
:102A6000B08900B100BF2F462C8A4CF6FF7004409D
:102A7000F08804432C82AC894EF6F3100440B088F1
:102A800031890843718908430443AC81AC8A4FF60D
:102A9000FF400440B0890443AC8201A8FFF7AEF9BF
:102AA0001F48874202D1DDF810A001E0DDF80CA03C
:102AB000A88900F4004040B10AEBCA0000EB0A10FC
:102AC00031684900B0FBF1F807E00AEBCA0000EBFF
:102AD0000A1031688900B0FBF1F86420B8FBF0F00F
:102AE00004012009642101FB1089A88900F4004039
:102AF00040B1322000EBC900B0FBF1F000F007005C
:102B0000044308E0322000EB09106421B0FBF1F02F
:102B100000F00F0004432C8106B0BDE8F0870000F0
:102B20000038014001468888C0F308007047C1F3AF
:102B300008028280704700BFFEE700001FB5012138
:102B40004120FFF73BF910208DF80F002020ADF851
:102B50000C0003208DF80E0003A91848FEF77EFF35
:102B600028208DF80F004020ADF80C0003208DF8D0
:102B70000E0003A91148FEF771FF06210420FEF79D
:102B80004DFF4020019001208DF80A0000208DF8B3
:102B9000080008208DF8090001A8FEF7F5FE1720AF
:102BA0008DF8000001208DF8030002208DF801004F
:102BB0008DF802006846FFF74FF81FBD001801406E
:102BC00010B520210548FEF7DFFF142000F0BAF809
:102BD00020210248FEF7D6FF10BD0000001801407A
:102BE000490050EAC12018BF04204A0D18BF40F028
:102BF000010040F2FF72B2EB515F08BF40F00200EB
:102C0000012808BF0520704730380A2801D201206A
:102C100070470020704700BF7047000070B5054640
:102C20000E4614461E491F48006800F099FD05D263
:102C300001201D490860FEF7D9FF2FE01849194807
:102C4000006800F08DFE29D200201749086017485F
:102C50000078012806D1002013490C390860FEF7DE
:102C6000C5FF1BE01148007818B110480078022811
:102C700014D101200C490C3908600D480078322825
:102C800004DDB1B2A0B2FEF78DFF07E0084800787E
:102C9000322803DAA1B2A8B2FEF784FF70BD0000AB
:102CA0000000A04158000020A081214262000020C5
:102CB0006300002010B56FF00400FFF7BBF90A486D
:102CC00000680A49B0FBF1F009490870084600782D
:102CD00000EB4001C1EBC0104FF6FF7101EAC000EC
:102CE0000449088010BD00002000002000127A0076
:102CF00034000020360000200146114A12884A4361
:102D00004FF0E0235A6100229A611A46126942F09C
:102D100001021A6100BF4FF0E022106900F00102C9
:102D20001AB100F48032002AF5D04FF0E022126987
:102D300022F001024FF0E0231A6100229A617047ED
:102D4000360000200146114A12784A434FF0E02332
:102D50005A6100229A611A46126942F001021A6110
:102D600000BF4FF0E022106900F001021AB100F438
:102D70008032002AF5D04FF0E022126922F00102E1
:102D80004FF0E0231A6100229A617047340000205E
:102D9000002700260025A846FFF78CFF4FF4A0600F
:102DA000FEF792FF4FF4165000F00CF9FEF72AFFE1
:102DB000FEF74CFD4FF4E13000F054F94FF4E130F0
:102DC00000F0A2F941F61F4141F28830FFF7AAFC5A
:102DD000FFF7B4FEB5E0FFF7F3FE5A48006800F0D5
:102DE0008BFC064637464FF45C7440F26635394634
:102DF00055A000F0BFF8574801783220FEF770FF69
:102E0000814600F095FC804600205349086001206F
:102E10005249C1F894015248007806282DD2DFE8C3
:102E200000F003060B141D22FEF7E0FE25E0A9B218
:102E3000A0B2FEF7B7FE20E0A5F1640291B2A4F1C2
:102E4000640290B2FEF7C6FE17E0A5F1640291B2EB
:102E5000A4F1640290B2FEF7B1FE0EE0A9B2A0B2F6
:102E6000FEF794FE09E0404600F046FC81464A46E3
:102E700029462046FFF7D2FE00BF00BF3948008830
:102E800000F4004000285CD036480088C0F30E00F3
:102E90003549088000203549334A12888854324821
:102EA0000088401E085C32490978884203D100201E
:102EB0002B4908703FE02C480088401E2B49085CD5
:102EC0002B494978884203D101202549087032E016
:102ED00025480088401E2549085C25498978884294
:102EE00003D102201E49087025E01F480088401EBB
:102EF0001E49085C1E49C978884203D1032018493D
:102F0000087018E018480088401E1849085C1849E5
:102F10000979884203D10420114908700BE0124856
:102F20000088401E1149085C11494979884202D144
:102F300005200B4908706420FFF7DEFE00200949D8
:102F4000088048E7580000207B227A223A25647DD9
:102F50000000000063000020A08121420080214287
:102F60000E00002066000020000000200202002069
:102F7000040000200FB438B505A800900F48009A4F
:102F80000499FDF79BF9002000900C48FDF7A8F983
:102F900085B200240DE000BF40210948FFF7FAFC8C
:102FA0000028F9D00548015D0548FFF7C0FD601C09
:102FB00084B2AC42EFDB38BC5DF814FB5A0400204D
:102FC0000048004010B586B00446012144F20400D8
:102FD000FEF7F4FE4FF40070ADF8140003208DF8F6
:102FE000160018208DF8170005A91C48FEF736FDBD
:102FF0004FF48060ADF8140004208DF8170005A987
:103000001648FEF72BFD25208DF8000003208DF8D3
:1030100001008DF8020001208DF803006846FEF7DC
:103020001BFE01940020ADF80800ADF80A00ADF8D1
:103030000C00ADF810000C20ADF80E0001A90848F6
:10304000FFF704FD012240F225510548FFF7D9FCA6
:1030500001210348FFF743FC06B010BD0008014002
:103060000038014010B586B0044601210420FEF767
:10307000A5FE01214804FEF781FE0420ADF81400EE
:1030800003208DF8160018208DF8170005A91C489C
:10309000FEF7E4FC0820ADF8140004208DF81700BA
:1030A00005A91748FEF7DAFC26208DF8000003205A
:1030B0008DF801008DF8020001208DF803006846AC
:1030C000FEF7CAFD01940020ADF80800ADF80A0033
:1030D000ADF80C00ADF810000C20ADF80E0001A901
:1030E0000848FFF7B3FC012240F225510548FFF7DD
:1030F00088FC01210348FFF7F2FB06B010BD000079
:10310000000801400044004010B586B0044601218B
:103110000820FEF753FE01218804FEF72FFE2A48FF
:10312000FFF7EAFB4FF48060ADF8100003208DF844
:10313000120018208DF8130004A92448FEF78EFC15
:103140004FF40060ADF8100004208DF8130004A9BE
:103150001E48FEF783FC00940020ADF80400ADF893
:103160000600ADF80800ADF80C000C20ADF80A0020
:1031700069461548FFF76AFC01211348FFF7AFFBCA
:10318000012240F225511048FFF73BFC27208DF823
:10319000140000208DF815008DF8160001208DF820
:1031A000170005A8FEF758FD41F61F4140F2E73031
:1031B000FFF796F800200649088000210548FFF730
:1031C000CCF806B010BD000000480040000C0140E3
:1031D000660000200014004010B500290AD00878CD
:1031E000002807D005487844FDF734FF002801D0B7
:1031F000002010BD0248784410BD0000C609000040
:10320000BE09000010B500290AD00878002807D0B0
:1032100005487844FDF71EFF002801D0002010BDAE
:103220000248784410BD0000B6090000AE09000055
:1032300021F00042A2F16052B2F5801F01F000437C
:1032400028BFD2F17F6C0BD95FEA001C43EAC202AF
:1032500042EB507018BF704728BF20F00100704744
:10326000B2F5801FBCBF184670474FEA410C1CF5F1
:10327000001F02D2084600F06EBB70B500F079F96D
:1032800000000089FFF7F6BF4FF00040A0F5800076
:10329000704700002DE9C04130B4DFF8A0C23CEA1D
:1032A000111418BF3CEA131400F0EC8081EA030506
:1032B0001CEA111444EAD57418BF1CEA131500F077
:1032C000C780A4EB05044FF0004545EAC12145EA5B
:1032D000C32341EA505143EA525304F17F749942A7
:1032E00004F500344FEAC0204FEAC22208BF9042E2
:1032F00000F09C804FEA13650FF24016765D4FEAAE
:10330000134506FB05F7C7F1807706FB07F74FEA81
:10331000D737A7FB03687642C8F58038A7FB06CEEF
:1033200038BFA8F1010807FB08E64FF0000EA6FB26
:10333000028CE6FB03CEDCF1000CCEF1004E38BF70
:10334000AEF1010EA6FB0C584FF000074FF0000540
:10335000E6FB0E87A1FB08C6A0FB07CE16EB0E0608
:1033600045F10005E1FB076515F1E04E7EBFA4F5D0
:1033700080345FEA46066D4116F1800745F100058D
:103380004FEA17274FEA066647EA0567A6F1DE46C9
:10339000B6F1805F4FEA15251FD9384624F0010C9D
:1033A00005EBC471BCF1FE6F01EB0C1102D8F0BC4F
:1033B000BDE8008124425CBF01F5801E9EEAC47F07
:1033C00002D4F0BCBDE80081244238D4F0BCA1F1A5
:1033D000C041BDE8004100F01AB94FEAD22242EAEA
:1033E00043524FEAD323A7FB02864FEAD02040EA9C
:1033F000415007FB03661EEA0E0F4FEAD12105FB81
:10340000026658BFA6EB0056B6EB00564FEA520EC6
:103410004EEAC37E18EB0E0E56EB530EBDD518EBDD
:1034200002085E417F1C55F10005B6E74FF4801598
:103430004FF000074FF000064FF00008ADE7F0BC7A
:103440004FF0000001F1C04101F00041BDE80081F2
:1034500011EA0C1F0CEA131500D00CE013EA0C1F44
:1034600000F025804FF00000F0BC81EA030101F07C
:103470000041BDE80081F0BCBDE8004181EA0301E4
:1034800000F0C5B8F0BCBDE8004170B500F071F8BF
:10349000097EFC3E00F007B881EA03014FF000000E
:1034A00001F00041704781EA030100F0B0B8F0BCC0
:1034B000BDE800414FF0000021497047FFFDFBF9D6
:1034C000F7F5F4F2F0EEEDEBE9E8E6E4E3E1E0DE57
:1034D000DDDBDAD8D7D5D4D3D1D0CFCDCCCBCAC8C9
:1034E000C7C6C5C4C2C1C0BFBEBDBCBBBAB9B8B7F0
:1034F000B6B5B4B3B2B1B0AFAEADACABAAA9A8A8E3
:10350000A7A6A5A4A3A3A2A1A09F9F9E9D9C9C9BB0
:103510009A9999989797969595949393929191905B
:103520008F8F8E8E8D8C8C8B8B8A898988888787EC
:103530008685858484838382828181800000FF0761
:103540000000F87F10F0004248BF4042B0FA80F31C
:1035500010FA03F10AD0C3F11D0303F580634FEAAB
:10356000415002EB035202EBD12170474FF00000B3
:1035700070470EF1020E2EF0030E5EF8046B364219
:1035800005D4012A43EB030515F5001F12D80128C5
:1035900041EB010C1CF5001F0CD80ED14FEAD17C79
:1035A00015F5001F0CEB4C0C0CF1020C08BF4CEB9A
:1035B000D37C04E04FF0080C01E04FEAD37C0CEB25
:1035C0004C0526FA05F606F00706B6F1040C06D2FD
:1035D0000EEB860CBDE870404CF0010C6047DFE854
:1035E0000CF0090B02024FF000414FF00000A1F572
:1035F000002170BD19461046012851EB010418BF87
:10360000D4F5001484BF002001F0004170BD08080B
:10361000A0F500114FEA31017047000090EA010F58
:1036200048BF81F0004100F1D481421A3CBF801AAA
:1036300089184FEAD0524FF07F4C1CEA410FA2EBA1
:10364000D15318BF9CEA026F00F03B804FF0004C52
:103650004CEA00204CEA012121FA03FC10EB0C0C8F
:103660001ED202F1FF325FEA1C2040EBC25038BF8D
:1036700070471CF07F0F4FEA400C18BFBCF17F4F22
:1036800038BF7047C3F12003994008BF20F0010004
:10369000BCF17F4F38BF7047A0F1C04000F05BB96C
:1036A0004FEA3C00000A40EBC25028BF1CF0FF0F5D
:1036B0004FEA400CE6D018BFBCF17F4F38BF7047CF
:1036C000EAE79CEA026F05D010EA5C0F08BF00F041
:1036D0000040704710B500F0F8F800BF64FBBE3E34
:1036E000401058BFC0F14040491058BFC1F140419F
:1036F0008142EFF30080704741000B0ED3F19E0230
:1037000008D950F400034FEA032323FA02F048BF1C
:103710004042704710B500F0D8F800BF49922480AD
:10372000002070476FF0004282EA200070470000DE
:1037300010F0004148BF4042B0FA80F310FA03F2A3
:10374000C3F19D030BD051EAC35101EB1220530684
:1037500038BF704700F1010008BF20F0010070473A
:1037600050EA010C00F113801CF5000F58BFBCF5A6
:10377000000F01D48842704707D710F5000F58BFDB
:1037800011F5000F15D488427047894270471CF527
:10379000000F04D5BCF5000FF7D5814270474FF0FC
:1037A000807C1CEB400F38BF1CEB410F01D28142E3
:1037B000704710B500F089F8922449004FF000508E
:1037C0004FF08051FFF78CBF4FF47F0C1CEAD012F2
:1037D0001EBF1CEAD11392EA0C0F93EA0C0F00F003
:1037E000478090EA010F48BF42F480724FF0004CCE
:1037F0004CEA00204CEA012102EB0302A0FB01137A
:10380000A2F50002002918BF43F001035B0028BFA6
:103810004FEA330342EB22425FEA132C4CEBC250D7
:103820002EBFBCEB436FB2F57C0F70474FEA036CC1
:10383000BCF1004F08BF20F00100B2F57C0F38BF8B
:1038400070470BD582F0FF0212F5803FC8BF70476A
:1038500000F1C040D8BF00F00040704700F5000CF8
:103860005FEA4C0C48BF7047B0F1C04000F073B83D
:1038700090EA010F0CEAD11348BF42F4807262450E
:1038800038BF634504D280EA010000F00040704771
:1038900010B500F01AF800BF8900013E00F007B82B
:1038A00000F009B85FEA410C5FEA1C6C08D080EABE
:1038B000010000F050B85FEA400C5FEA1C6CF6D1E2
:1038C0004FF00040A0F5800070470EF1020E2EF080
:1038D000030E5EF8044B244204D44FEA4102B2F1D5
:1038E0007F4F11D84FEA4003B3F17F4F0CD80ED170
:1038F0004FEAD07CB2F17F4F0CEB4C0C0CF1020C78
:1039000008BF4CEBD17C04E04FF0080C01E04FEA1B
:10391000D17C0CEB4C0324FA03F404F00704B4F15B
:10392000040C06D20EEB840CBDE810404CF0010CE8
:103930006047DFE80CF0070802024FF00040A0F5F6
:10394000800010BD0846420018BFD2F1807288BFC7
:1039500000F0004010BDFF2141EAD050C005704783
:1039600051EA000C00F113801CF5000F58BFBCF5A4
:10397000000F01D48142704707D711F5000F58BFDF
:1039800010F5000F15D481427047894270471CF52D
:10399000000F04D5BCF5000FF7D5884270474FF0F3
:1039A000807C1CEB410F38BF1CEB400F01D28842DA
:1039B000704780EA010081EA000180EA0100FFF718
:1039C000F8BE000090EA010F48BF81F000413FF5CA
:1039D0002CAE421A04D882F00042A0EB020011443F
:1039E0004FEAD0524FF07F4C1CEA410FA2EBD1536B
:1039F00018BF9CEA026F4AD04FF0004C4CEA0020FE
:103A00004CEA012121FA03FCB0EB0C0C0FD412F0AC
:103A1000FE0F36D05FEA4C001DD5001240EBC250BD
:103A200038BF70471CF03F0F18BF70470BE0A2F182
:103A300001025FEA1C2040EBC25038BF70471CF007
:103A40007F0F18BF7047C3F12003994014BF401E79
:103A500020F00100704780084FEA122308BF70472A
:103A6000B0FA80FCA2EB0C02CCF1280C60FA0CF04E
:103A700093EA122F04BF00EBC25070474FEAC370A5
:103A80007047130A5FEADC1008BF7047F6E79CEA4C
:103A9000026F04D010EA5C0F08BF0020704710B519
:103AA000FFF713FF40DFF63E81F000407047FDF75F
:103AB00062B8000000000000000000003031323326
:103AC0003435363738394142434445464030580052
:103AD0003031323334353637383961626364656684
:103AE00040307800040000080000000000000002E0
:103AF000000100001000000002400000000000A0D3
:103B00000000000005400000000000C800000000A8
:103B10000C4000000000409C000000001940000024
:103B20000020BCBE0000000034400000BFC91B8E56
:103B300000000004B5400000504BCFD06607E2CF34
:103B4000010000006C4100003E8251AADFEEA73464
:103B500001000000D9420000DCB5A0E23A301F9716
:103B6000FFFFFFFFB4450000FD25A0C8E9A3C14F3A
:103B7000FFFFFFFFFF3F000000000080000000008B
:103B8000FF3F00000000008000000000D83C00085B
:103B900000000020680000006C010008403D0008A3
:103BA00068000020B00C0000880100081C00000024
:103BB00043000000F8FFFFFF0C0000000E000000B3
:103BC0000F0000002E000000100100004300000064
:103BD000F8FFFFFF0040404040404040404041412E
:103BE00041414140404040404040404040404040D2
:103BF000404040404005020202020202020202026C
:103C00000202020202202020202020202020200268
:103C100002020202020290909090909010101010F8
:103C20001010101010101010101010101010101094
:103C30000202020202028888888888880808080828
:103C400008080808080808080808080808080808F4
:103C5000020202024000000000000000000000001C
:103C60000000000000000000000000000000000054
:103C70000000000000000000000000000000000044
:103C80000000000000000000000000000000000034
:103C90000000000000000000000000000000000024
:103CA0000000000000000000000000000000000014
:103CB0000000000000000000000000000000000004
:103CC00000000000000000000000000000000000F4
:103CD000000000000000000000000000303132331E
:103CE000343536373839000000000000000000008D
:103CF000000000000000000000A24A0400000000D4
:103D0000000000000102030406070809000000008B
:103D10000000000000000000000001020304010296
:103D2000030406070809020406080000000000005A
:103D30000000000000000000000000000000000083
:040000050800027974
:00000001FF
